:100000000A128A11EC2F00308A000408840A820741
:100010000034543465346D3470343A34203425342B
:1000200064342E3425346434203443342034203472
:100030002034203400344F34663466343A34253466
:100040002B34643420342034203453344134463447
:100050004534203400344F34663466343A34253421
:100060002B34643420342034203457344134523417
:060070004E342034003480
:1001B600080064008001840A04060319003404065A
:1001C600DD288E30831603139F00813083120313BC
:1001D6009F000800F71BF028F128F228FD28760971
:1001E600F8007709F900F80A0319F90A7808F60001
:1001F6007908F7000800F7007703031D032904298F
:10020600082976087F3EF8000B297608BF3EF800DD
:1002160078080A128A1161210A128A1108001D291A
:100226007508840000080A128A1142210A128A11EE
:100236000130F5077508840083130008031D24297F
:10024600252913290800F2007208F1000130031075
:10025600F10DFF3E031D2A290310710D7004831250
:100266000313870087145330F100F10B38298312EA
:10027600031387105330F100F10B3F290800F400F7
:10028600F001F00A7408F30004300310F30CFF3E8B
:10029600031D482973080A128A1126210A128A1197
:1002A600F001F00A74080F390A128A1126210A127F
:1002B6008A115330F300F30B5E290800F500F001B4
:1002C6007508F30004300310F30CFF3E031D662986
:1002D60073080A128A1126210A128A11F00175087A
:1002E6000F390A128A1126210A128A110D30F400DA
:1002F600FB30F300F30B7D29F40B7D2982290800DE
:10030600831203134908CB0095294708BB00480808
:10031600BC004B30BD004A08BE000A128A114D24AB
:100326000A128A11831203134B0884000A128A11D7
:1003360003200A128A11003A031DA229A32988293B
:10034600C701C80108004E3083120313D3004C08BE
:10035600D4000030D500D601D701DD01DE015430CE
:10036600C7000030C8004D08C9005330CA000A1241
:100376008A1183210A128A118312031356084C0725
:10038600D20052088400831380010800F401F501AD
:10039600701CCE29CF29D5297208F4070318F50A4F
:1003A6007308F50701300310F20DF30DFF3E031D30
:1003B600D62901300310F10CF00CFF3E031DDD2998
:1003C60070087104031DE829E929CB297508F10095
:1003D6007408F0000800F400C730831203139F0569
:1003E6007408F20002300310F20DFF3E031DF629D9
:1003F6000310720D9F040D30F300FB30F200F20B78
:10040600022AF30B022A072A831203131F151F1948
:100416000D2A0E2A0A2A1E08F100831603131E0847
:10042600F000080083120313A601A701322A25084B
:10043600A300A4012308F0002408F1002108F2001B
:100446002208F3000A128A11E5240A128A110130E1
:1004560083120313A6070318A70A0030A707260866
:100466002007A3002308840083130008A50025089D
:10047600031D3E2A3F2A1A2A080083120313AC1FC3
:10048600452A462A482AAB01AC01AD01AE01622AD3
:100496002030F0000030F100831203132808F20028
:1004A6002908F3000A128A11E5240A128A1101307A
:1004B60083120313AD070318AE0A0030AE072E08E9
:1004C600803AFD002C08803A7D02031D6C2A2B0819
:1004D6002D02031C6F2A702A4B2A831203132A0843
:1004E600A0002808A1002908A2000A128A111522D4
:1004F6000A128A1108000030FC000030FB000030B0
:10050600FA000030F900701C892A8A2AA12A740888
:10051600F907750803110318013E0319932AFA0710
:10052600760803110318013E03199A2AFB07770878
:1005360003110318013E0319A12AFC070130F80034
:100546000310F40DF50DF60DF70DF80BA32A013087
:100556000310F30CF20CF10CF00CFF3E031DAB2A5A
:100566007308720471047004031DBA2ABB2A862A12
:100576007C08F3007B08F2007A08F1007908F000A5
:100586000800F501F31FC82AC92AD02AF209F3097F
:10059600F20A0319F30A0130F500F11FD32AD42A0F
:1005A600D92AF009F109F00A0319F10A7008710451
:1005B6000319DE2ADF2A0C2B0130F400EB2A013066
:1005C6000310F00DF10DFF3E031DE32A0130F40781
:1005D600F11FEE2AEF2AE22A71087302031DF52A9B
:1005E60070087202031CF82AF92AFF2A7008F20220
:1005F6007108031CF303F30201300310F10CF00C35
:10060600FF3E031D002B0130F402031D0B2B0C2BA8
:10061600EF2A75080319102B112B162BF209F30973
:10062600F20A0319F30A7308F1007208F0000800D1
:10063600F501F11F1F2B202B272BF009F109F00ADA
:100646000319F10A0130F500F31F2A2B2B2B322B4D
:10065600F209F309F20A0319F30A0130F506F60165
:10066600F701700871040319392B3A2B6F2B0130EF
:10067600F400462B01300310F00DF10DFF3E031D73
:100686003E2B0130F407F11F492B4A2B3D2B01303D
:100696000310F60DF70DFF3E031D4B2B7108730279
:1006A600031D572B70087202031C5A2B5B2B622BFF
:1006B6007008F2027108031CF303F302761401308A
:1006C6000310F10CF00CFF3E031D632B0130F40206
:1006D600031D6E2B6F2B4A2B75080319732B742B76
:1006E600792BF609F709F60A0319F70A7708F100D4
:1006F6007608F0000800003083120313AB000030C8
:10070600AA000030A9000030A80023082204210412
:10071600200403198F2B902BDB2B0130AC009E2B72
:100726000130FD000310A00DA10DA20DA30DFD0BC0
:10073600952B0130AC07A31FA12BA22B932B0130C5
:10074600FD000310A80DA90DAA0DAB0DFD0BA42BE2
:1007560023082702031DB92B22082602031DB92BE5
:1007660021082502031DB92B20082402031CBC2BDB
:10077600BD2BCC2B2008A4022108031C210FA502A7
:100786002208031C220FA6022308031C230FA7021C
:10079600281401300310A30CA20CA10CA00CFF3EE0
:1007A600031DCD2B0130AC02031DDA2BDB2BA22B54
:1007B6002B08A3002A08A2002908A1002808A000E7
:1007C60008008316031387018312031387018230FF
:1007D600F700DD30F600F60BEE2BF70BEE2BF32BC6
:1007E600F00103300A128A1126210A128A112130D9
:1007F600F7007630F600F60BFE2BF70BFE2B00000B
:10080600F00103300A128A1126210A128A11A63033
:10081600F600F60B0C2C0000F00103300A128A11C8
:1008260026210A128A11A630F600F60B182C0000B3
:10083600F00102300A128A1126210A128A110D309D
:10084600F700FB30F600F60B262CF70B262C2B2C8C
:1008560028300A128A1161210A128A110C300A12F2
:100866008A1161210A128A1106300A128A1161213F
:100876000A128A1101300A128A1161210A128A119A
:100886002130F7007630F600F60B472CF70B472C95
:1008960000000800831203133D0884008313000838
:1008A60084000A128A1103200A128A11253A031DAE
:1008B6005D2C5E2CCB2C3D08840001308007E201C4
:1008C600E3010030E600FF30E400FF30E500C5013B
:1008D600822C66153D08840001308007822C013089
:1008E600C500822C3D088400000884000A128A1183
:1008F60003200A128A112B3A03196C2C722C450814
:100906000319862C872C752C3D0884000008C60028
:10091600460884000A128A1103200A128A11643AD0
:100926000319962C972CA32C460884000A128A11C8
:1009360003200A128A11693A031DA22CA32CC32C88
:100946003E0884000008BF00023080073F0884008C
:100956000008C100840A0008C2003D088400460859
:10096600013E80003B08AF003C08B0004208B200E0
:100976004108B1000A128A117F250A128A11E42C55
:10098600831203133D088400013083138007E42C8F
:100996003D088400000884000A128A1103200A1206
:1009A6008A11BF00C0013F08F0004008F1003B0873
:1009B600F2003C08F3000A128A11E5240A128A1191
:1009C600C32C0800720873040319EA2CEB2CF12CD3
:1009D60072087304031DF02CF12CF82C70080A120F
:1009E6008A11DB200A128A117E2D7208093EF40054
:1009F60073080318013E003EF5007408840083174F
:100A0600751C83130008F600840A0008F7007608B0
:100A1600770403190F2D102D422D7208093EF4009C
:100A260073080318013E003EF5007408840083171E
:100A3600751C83130008F600840A0008F700720884
:100A4600023EF80073080318013E003EF9007808DC
:100A560084008317791C83130008FA00840A0008AF
:100A6600FB007B08803AFC007708803A7C02031D75
:100A76003E2D76087A020318412D422D7E2D7208EE
:100A860084008317731C83130008F400840A00088B
:100A9600F5007208023EF60073080318013E003E98
:100AA600F700760884008317771C83130008740701
:100AB600F9007508F8000318F80A801F632DF8037B
:100AC6007808FA007908840083177A1C8313700863
:100AD60080007208023EF40073080318013E003ECF
:100AE600F500740884008317751C83130130800792
:100AF600840A0318800A0800013083120313B70022
:100B0600B21B862D882D0130892D0030B800630870
:100B1600B6006208B5003808031D922D932D972D57
:100B2600661D962D972DAD2DFF30B5070318B60A15
:100B3600FF30B6073808031DA12DA22DA72D2B3097
:100B4600B3000030B400AB2D2D30B3000030B4003C
:100B56003308B8001F30B9000030BA0083160313FB
:100B6600E301F42DFF30B9070318BA0AFF30BA07BC
:100B76003908C43E84000A30F0000030F100320823
:100B8600F3003108F2000A128A11C4220A128A11ED
:100B96007108F7007008F6000A128A11ED200A1291
:100BA6008A117608303E8313800083120313B7013F
:100BB600FF30B5070318B60AFF30B6070A30F00053
:100BC6000030F1003208F3003108F2000A128A11EF
:100BD6001B230A128A11710883120313B2007008CC
:100BE600B10083123A08803AFF0080307F02031D6D
:100BF600FE2D01303902031C012E022E0F2E831208
:100C0600031331083204031D092E0A2EB52D3708A9
:100C1600031D0E2E0F2EB52D83120313380803194C
:100C2600152E162E222EFF30B9070318BA0AFF30EA
:100C3600BA073908C43E84003808831380002F0899
:100C4600A8003008A9003908C43EAA003608AC003E
:100C56003508AB000A128A1140220A128A110800CE
:100C66008316031305140810881008118312031342
:100C76008801831603130614861481170A128A1133
:100C8600E4200A128A110A128A11E4230A128A112E
:100C960083160313C001C1017C30BC000130BD00C6
:100CA600831203130618582E592E762E823083127D
:100CB6000313E000DD30DF00DF0B5F2EE00B5F2E5D
:100CC600831203130618682E692E762E01308316BA
:100CD6000313C0070318C10A0030C1078312061C9C
:100CE600752E762E712E8618792E7A2E972E8230B4
:100CF60083120313E000DD30DF00DF0B802EE00BF4
:100D0600802E831203138618892E8A2E972EFF3083
:100D160083160313C0070318C10AFF30C1078312E5
:100D2600861C962E972E922E00300A128A11EE21DC
:100D36000A128A11710883160313B9007008B800E5
:100D4600003083120313A3000030A2000030A1007C
:100D56006430A000831603133808F0003908F10048
:100D6600F201F3010030F7000030F6000130F50023
:100D7600E830F4000A128A117E220A128A117308D8
:100D860083120313A7007208A6007108A500700855
:100D9600A4000A128A117E230A128A1183120313EF
:100DA600230883160313B70083120313220883163E
:100DB6000313B60083120313210883160313B50029
:100DC60083120313200883160313B4004108F100AD
:100DD6004008F0000A30F2000030F3000A128A11CF
:100DE600C9210A128A118316031334087007C20038
:100DF60035080318350A7107C3000A30F0000030C1
:100E0600F1004308F3004208F2000A128A111B237C
:100E16000A128A11710883160313BB007008BA0000
:100E26000A30F0000030F1004308F3004208F200F7
:100E36000A128A11C4220A128A1171088316031330
:100E4600BF007008BE00BF1F292F2A2F2F2FBE09F3
:100E5600BF09BE0A0319BF0AA03083120313CC00D0
:100E66000130CD00831603133B0883120313CF0012
:100E7600831603133A0883120313CE008316031353
:100E86003F0883120313D100831603133E0883120F
:100E96000313D0000A128A11A6210A128A11F6013A
:100EA600F60A01300A128A11FE200A128A11A030AF
:100EB600F5000A128A1112210A128A1183160313E7
:100EC6003D08803A83120313DF0083160313430899
:100ED600803A831203135F02031D752F83160313D3
:100EE60042083C020318782F792F912FA0308312E5
:100EF6000313CC002330CD0083160313410883125D
:100F06000313CF0083160313400883120313CE0086
:100F16000A128A11A6210A128A11A82FA03083125A
:100F26000313CC001330CD0083160313410883123C
:100F36000313CF0083160313400883120313CE0056
:100F46000A128A11A6210A128A11F601F60A02303D
:100F56000A128A11FE200A128A11A030F5000A121E
:100F66008A1112210A128A11831603133D08803A48
:100F760083120313DF00831603134308803A831298
:100F860003135F02031DCB2F8316031342083C0293
:100F96000318CE2FCF2FD52F83120313081408154D
:100FA6008810DA2F831203130810081188140230F0
:100FB60083120313E1004530E000A930DF00DF0BA8
:100FC600E22FE00BE22FE10BE22F532E0A128A11D9
:100FD600002883120313E201E301E401E501E601BF
:100FE6008313C4308400E4300A128A11DC200A120A
:0A0FF6008A1183010A128A11332EBA
:02400E003A3F37
:00000001FF
